{
  "_format": "hh-sol-artifact-1",
  "contractName": "VickreyAuction",
  "sourceName": "contracts/VickreyAuction.sol",
  "abi": [
    {
      "inputs": [
        {
          "internalType": "address",
          "name": "_sellerAddress",
          "type": "address"
        },
        {
          "internalType": "address",
          "name": "_judgeAddress",
          "type": "address"
        },
        {
          "internalType": "address",
          "name": "_timerAddress",
          "type": "address"
        },
        {
          "internalType": "uint256",
          "name": "_minimumPrice",
          "type": "uint256"
        },
        {
          "internalType": "uint256",
          "name": "_biddingPeriod",
          "type": "uint256"
        },
        {
          "internalType": "uint256",
          "name": "_revealPeriod",
          "type": "uint256"
        },
        {
          "internalType": "uint256",
          "name": "_bidDepositAmount",
          "type": "uint256"
        }
      ],
      "stateMutability": "nonpayable",
      "type": "constructor"
    },
    {
      "inputs": [],
      "name": "bidDepositAmount",
      "outputs": [
        {
          "internalType": "uint256",
          "name": "",
          "type": "uint256"
        }
      ],
      "stateMutability": "view",
      "type": "function"
    },
    {
      "inputs": [],
      "name": "biddingDeadline",
      "outputs": [
        {
          "internalType": "uint256",
          "name": "",
          "type": "uint256"
        }
      ],
      "stateMutability": "view",
      "type": "function"
    },
    {
      "inputs": [
        {
          "internalType": "bytes32",
          "name": "bidCommitment",
          "type": "bytes32"
        }
      ],
      "name": "commitBid",
      "outputs": [],
      "stateMutability": "payable",
      "type": "function"
    },
    {
      "inputs": [],
      "name": "finalize",
      "outputs": [],
      "stateMutability": "nonpayable",
      "type": "function"
    },
    {
      "inputs": [],
      "name": "getWinner",
      "outputs": [
        {
          "internalType": "address",
          "name": "",
          "type": "address"
        }
      ],
      "stateMutability": "view",
      "type": "function"
    },
    {
      "inputs": [],
      "name": "getWinningPrice",
      "outputs": [
        {
          "internalType": "uint256",
          "name": "price",
          "type": "uint256"
        }
      ],
      "stateMutability": "view",
      "type": "function"
    },
    {
      "inputs": [],
      "name": "minimumPrice",
      "outputs": [
        {
          "internalType": "uint256",
          "name": "",
          "type": "uint256"
        }
      ],
      "stateMutability": "view",
      "type": "function"
    },
    {
      "inputs": [],
      "name": "refund",
      "outputs": [],
      "stateMutability": "nonpayable",
      "type": "function"
    },
    {
      "inputs": [
        {
          "internalType": "uint256",
          "name": "nonce",
          "type": "uint256"
        }
      ],
      "name": "revealBid",
      "outputs": [],
      "stateMutability": "payable",
      "type": "function"
    },
    {
      "inputs": [],
      "name": "revealDeadline",
      "outputs": [
        {
          "internalType": "uint256",
          "name": "",
          "type": "uint256"
        }
      ],
      "stateMutability": "view",
      "type": "function"
    },
    {
      "inputs": [],
      "name": "time",
      "outputs": [
        {
          "internalType": "uint256",
          "name": "",
          "type": "uint256"
        }
      ],
      "stateMutability": "view",
      "type": "function"
    },
    {
      "inputs": [],
      "name": "withdraw",
      "outputs": [],
      "stateMutability": "nonpayable",
      "type": "function"
    }
  ],
  "bytecode": "0x60806040523480156200001157600080fd5b50604051620014f6380380620014f6833981810160405281019062000037919062000429565b868686600080836000806101000a81548173ffffffffffffffffffffffffffffffffffffffff021916908373ffffffffffffffffffffffffffffffffffffffff16021790555082600160006101000a81548173ffffffffffffffffffffffffffffffffffffffff021916908373ffffffffffffffffffffffffffffffffffffffff16021790555084600260006101000a81548173ffffffffffffffffffffffffffffffffffffffff021916908373ffffffffffffffffffffffffffffffffffffffff160217905550600073ffffffffffffffffffffffffffffffffffffffff16600260009054906101000a900473ffffffffffffffffffffffffffffffffffffffff1673ffffffffffffffffffffffffffffffffffffffff1603620001985733600260006101000a81548173ffffffffffffffffffffffffffffffffffffffff021916908373ffffffffffffffffffffffffffffffffffffffff1602179055505b81600360006101000a81548173ffffffffffffffffffffffffffffffffffffffff021916908373ffffffffffffffffffffffffffffffffffffffff160217905550806004819055506000600660006101000a81548160ff0219169083151502179055506000600660016101000a81548160ff02191690831515021790555050505050508360078190555080600a81905550826200023a6200028960201b60201c565b6200024691906200050b565b60088190555081836200025e6200028960201b60201c565b6200026a91906200050b565b6200027691906200050b565b600981905550505050505050506200059a565b60008073ffffffffffffffffffffffffffffffffffffffff16600160009054906101000a900473ffffffffffffffffffffffffffffffffffffffff1673ffffffffffffffffffffffffffffffffffffffff16146200037d57600160009054906101000a900473ffffffffffffffffffffffffffffffffffffffff1673ffffffffffffffffffffffffffffffffffffffff1663557ed1ba6040518163ffffffff1660e01b8152600401602060405180830381865afa1580156200034f573d6000803e3d6000fd5b505050506040513d601f19601f8201168201806040525081019062000375919062000568565b905062000381565b4390505b90565b600080fd5b600073ffffffffffffffffffffffffffffffffffffffff82169050919050565b6000620003b68262000389565b9050919050565b620003c881620003a9565b8114620003d457600080fd5b50565b600081519050620003e881620003bd565b92915050565b6000819050919050565b6200040381620003ee565b81146200040f57600080fd5b50565b6000815190506200042381620003f8565b92915050565b600080600080600080600060e0888a0312156200044b576200044a62000384565b5b60006200045b8a828b01620003d7565b97505060206200046e8a828b01620003d7565b9650506040620004818a828b01620003d7565b9550506060620004948a828b0162000412565b9450506080620004a78a828b0162000412565b93505060a0620004ba8a828b0162000412565b92505060c0620004cd8a828b0162000412565b91505092959891949750929550565b7f4e487b7100000000000000000000000000000000000000000000000000000000600052601160045260246000fd5b60006200051882620003ee565b91506200052583620003ee565b9250827fffffffffffffffffffffffffffffffffffffffffffffffffffffffffffffffff038211156200055d576200055c620004dc565b5b828201905092915050565b60006020828403121562000581576200058062000384565b5b6000620005918482850162000412565b91505092915050565b610f4c80620005aa6000396000f3fe6080604052600436106100a75760003560e01c80637f386b6c116100645780637f386b6c1461016357806386a2cc271461018e5780638e7ea5b2146101aa578063aac71c29146101d5578063b14b28a314610200578063d68895d81461022b576100a7565b80630fd388d3146100ac57806316ada547146100d75780633ccfd60b146101025780633e3b903e146101195780634bb278f314610135578063590e1ae31461014c575b600080fd5b3480156100b857600080fd5b506100c1610256565b6040516100ce9190610c2e565b60405180910390f35b3480156100e357600080fd5b506100ec61025c565b6040516100f99190610c2e565b60405180910390f35b34801561010e57600080fd5b50610117610352565b005b610133600480360381019061012e9190610c7a565b6106f8565b005b34801561014157600080fd5b5061014a6106fb565b005b34801561015857600080fd5b50610161610705565b005b34801561016f57600080fd5b50610178610831565b6040516101859190610c2e565b60405180910390f35b6101a860048036038101906101a39190610cdd565b610837565b005b3480156101b657600080fd5b506101bf61083a565b6040516101cc9190610d4b565b60405180910390f35b3480156101e157600080fd5b506101ea610864565b6040516101f79190610c2e565b60405180910390f35b34801561020c57600080fd5b5061021561086a565b6040516102229190610c2e565b60405180910390f35b34801561023757600080fd5b50610240610870565b60405161024d9190610c2e565b60405180910390f35b60085481565b60008073ffffffffffffffffffffffffffffffffffffffff16600160009054906101000a900473ffffffffffffffffffffffffffffffffffffffff1673ffffffffffffffffffffffffffffffffffffffff161461034b57600160009054906101000a900473ffffffffffffffffffffffffffffffffffffffff1673ffffffffffffffffffffffffffffffffffffffff1663557ed1ba6040518163ffffffff1660e01b8152600401602060405180830381865afa158015610320573d6000803e3d6000fd5b505050506040513d601f19601f820116820180604052508101906103449190610d7b565b905061034f565b4390505b90565b600073ffffffffffffffffffffffffffffffffffffffff16600360009054906101000a900473ffffffffffffffffffffffffffffffffffffffff1673ffffffffffffffffffffffffffffffffffffffff16036103e3576040517f08c379a00000000000000000000000000000000000000000000000000000000081526004016103da90610e05565b60405180910390fd5b600360009054906101000a900473ffffffffffffffffffffffffffffffffffffffff1673ffffffffffffffffffffffffffffffffffffffff163373ffffffffffffffffffffffffffffffffffffffff161415801561048f5750600260009054906101000a900473ffffffffffffffffffffffffffffffffffffffff1673ffffffffffffffffffffffffffffffffffffffff163373ffffffffffffffffffffffffffffffffffffffff1614155b156104cf576040517f08c379a00000000000000000000000000000000000000000000000000000000081526004016104c690610e71565b60405180910390fd5b600360009054906101000a900473ffffffffffffffffffffffffffffffffffffffff1673ffffffffffffffffffffffffffffffffffffffff163373ffffffffffffffffffffffffffffffffffffffff161480156105395750600660019054906101000a900460ff16155b15610594573373ffffffffffffffffffffffffffffffffffffffff166108fc6005549081150290604051600060405180830381858888f19350505050158015610586573d6000803e3d6000fd5b5060006005819055506106f6565b600260009054906101000a900473ffffffffffffffffffffffffffffffffffffffff1673ffffffffffffffffffffffffffffffffffffffff163373ffffffffffffffffffffffffffffffffffffffff161480156105fe5750600660009054906101000a900460ff16155b6106f6576000600660006101000a81548160ff0219169083151502179055506000600660016101000a81548160ff02191690831515021790555060006004549050600360009054906101000a900473ffffffffffffffffffffffffffffffffffffffff1673ffffffffffffffffffffffffffffffffffffffff163373ffffffffffffffffffffffffffffffffffffffff16036106a557600554816106a29190610ec0565b90505b60006004819055503373ffffffffffffffffffffffffffffffffffffffff166108fc829081150290604051600060405180830381858888f193505050501580156106f3573d6000803e3d6000fd5b50505b565b50565b61070361087a565b565b600260009054906101000a900473ffffffffffffffffffffffffffffffffffffffff1673ffffffffffffffffffffffffffffffffffffffff163373ffffffffffffffffffffffffffffffffffffffff16141580156107af575060008054906101000a900473ffffffffffffffffffffffffffffffffffffffff1673ffffffffffffffffffffffffffffffffffffffff163373ffffffffffffffffffffffffffffffffffffffff1614155b156107b957600080fd5b600073ffffffffffffffffffffffffffffffffffffffff16600360009054906101000a900473ffffffffffffffffffffffffffffffffffffffff1673ffffffffffffffffffffffffffffffffffffffff160361081457600080fd5b6001600660016101000a81548160ff021916908315150217905550565b60075481565b50565b6000600360009054906101000a900473ffffffffffffffffffffffffffffffffffffffff16905090565b600a5481565b60095481565b6000600454905090565b600260009054906101000a900473ffffffffffffffffffffffffffffffffffffffff1673ffffffffffffffffffffffffffffffffffffffff163373ffffffffffffffffffffffffffffffffffffffff1614806109d45750600073ffffffffffffffffffffffffffffffffffffffff16600360009054906101000a900473ffffffffffffffffffffffffffffffffffffffff1673ffffffffffffffffffffffffffffffffffffffff1614801561097c5750600073ffffffffffffffffffffffffffffffffffffffff1660008054906101000a900473ffffffffffffffffffffffffffffffffffffffff1673ffffffffffffffffffffffffffffffffffffffff1614155b80156109d3575060008054906101000a900473ffffffffffffffffffffffffffffffffffffffff1673ffffffffffffffffffffffffffffffffffffffff163373ffffffffffffffffffffffffffffffffffffffff16145b5b156109de57600080fd5b600073ffffffffffffffffffffffffffffffffffffffff1660008054906101000a900473ffffffffffffffffffffffffffffffffffffffff1673ffffffffffffffffffffffffffffffffffffffff1614158015610a8a5750600073ffffffffffffffffffffffffffffffffffffffff16600360009054906101000a900473ffffffffffffffffffffffffffffffffffffffff1673ffffffffffffffffffffffffffffffffffffffff1614155b8015610b3a575060008054906101000a900473ffffffffffffffffffffffffffffffffffffffff1673ffffffffffffffffffffffffffffffffffffffff163373ffffffffffffffffffffffffffffffffffffffff161480610b385750600360009054906101000a900473ffffffffffffffffffffffffffffffffffffffff1673ffffffffffffffffffffffffffffffffffffffff163373ffffffffffffffffffffffffffffffffffffffff16145b155b15610b4457600080fd5b600073ffffffffffffffffffffffffffffffffffffffff16600360009054906101000a900473ffffffffffffffffffffffffffffffffffffffff1673ffffffffffffffffffffffffffffffffffffffff1603610bdc5733600360006101000a81548173ffffffffffffffffffffffffffffffffffffffff021916908373ffffffffffffffffffffffffffffffffffffffff1602179055505b60001515600660009054906101000a900460ff16151503610c13576001600660006101000a81548160ff0219169083151502179055505b565b6000819050919050565b610c2881610c15565b82525050565b6000602082019050610c436000830184610c1f565b92915050565b600080fd5b610c5781610c15565b8114610c6257600080fd5b50565b600081359050610c7481610c4e565b92915050565b600060208284031215610c9057610c8f610c49565b5b6000610c9e84828501610c65565b91505092915050565b6000819050919050565b610cba81610ca7565b8114610cc557600080fd5b50565b600081359050610cd781610cb1565b92915050565b600060208284031215610cf357610cf2610c49565b5b6000610d0184828501610cc8565b91505092915050565b600073ffffffffffffffffffffffffffffffffffffffff82169050919050565b6000610d3582610d0a565b9050919050565b610d4581610d2a565b82525050565b6000602082019050610d606000830184610d3c565b92915050565b600081519050610d7581610c4e565b92915050565b600060208284031215610d9157610d90610c49565b5b6000610d9f84828501610d66565b91505092915050565b600082825260208201905092915050565b7f4e6f2077696e6e6572207965742c2063616e6e6f742077697468647261770000600082015250565b6000610def601e83610da8565b9150610dfa82610db9565b602082019050919050565b60006020820190508181036000830152610e1e81610de2565b9050919050565b7f556e617574686f72697a65642077697468647261770000000000000000000000600082015250565b6000610e5b601583610da8565b9150610e6682610e25565b602082019050919050565b60006020820190508181036000830152610e8a81610e4e565b9050919050565b7f4e487b7100000000000000000000000000000000000000000000000000000000600052601160045260246000fd5b6000610ecb82610c15565b9150610ed683610c15565b9250827fffffffffffffffffffffffffffffffffffffffffffffffffffffffffffffffff03821115610f0b57610f0a610e91565b5b82820190509291505056fea2646970667358221220ca8535839ea9b26dcee9f720b6910217aa5f54df8b89e9fd5355afc8dcb7a0ab64736f6c634300080d0033",
  "linkReferences": {},
  "deployedLinkReferences": {}
}