{
  "_format": "hh-sol-artifact-1",
  "contractName": "Timer",
  "sourceName": "contracts/Timer.sol",
  "abi": [
    {
      "inputs": [
        {
          "internalType": "uint256",
          "name": "_startTime",
          "type": "uint256"
        }
      ],
      "stateMutability": "nonpayable",
      "type": "constructor"
    },
    {
      "inputs": [],
      "name": "getTime",
      "outputs": [
        {
          "internalType": "uint256",
          "name": "",
          "type": "uint256"
        }
      ],
      "stateMutability": "view",
      "type": "function"
    },
    {
      "inputs": [
        {
          "internalType": "uint256",
          "name": "_offset",
          "type": "uint256"
        }
      ],
      "name": "offsetTime",
      "outputs": [],
      "stateMutability": "nonpayable",
      "type": "function"
    },
    {
      "inputs": [],
      "name": "resetTime",
      "outputs": [],
      "stateMutability": "nonpayable",
      "type": "function"
    },
    {
      "inputs": [
        {
          "internalType": "uint256",
          "name": "_newTime",
          "type": "uint256"
        }
      ],
      "name": "setTime",
      "outputs": [],
      "stateMutability": "nonpayable",
      "type": "function"
    }
  ],
  "bytecode": "0x608060405234801561001057600080fd5b50604051610562380380610562833981810160405281019061003291906100c2565b33600260006101000a81548173ffffffffffffffffffffffffffffffffffffffff021916908373ffffffffffffffffffffffffffffffffffffffff1602179055508060008190555080600181905550506100ef565b600080fd5b6000819050919050565b61009f8161008c565b81146100aa57600080fd5b50565b6000815190506100bc81610096565b92915050565b6000602082840312156100d8576100d7610087565b5b60006100e6848285016100ad565b91505092915050565b610464806100fe6000396000f3fe608060405234801561001057600080fd5b506004361061004c5760003560e01c80633beb26c414610051578063557ed1ba1461006d57806365a114f11461008b578063de858cb814610095575b600080fd5b61006b600480360381019061006691906102d5565b6100b1565b005b61007561014b565b6040516100829190610311565b60405180910390f35b610093610154565b005b6100af60048036038101906100aa91906102d5565b6101ef565b005b600260009054906101000a900473ffffffffffffffffffffffffffffffffffffffff1673ffffffffffffffffffffffffffffffffffffffff163373ffffffffffffffffffffffffffffffffffffffff1614610141576040517f08c379a000000000000000000000000000000000000000000000000000000000815260040161013890610389565b60405180910390fd5b8060008190555050565b60008054905090565b600260009054906101000a900473ffffffffffffffffffffffffffffffffffffffff1673ffffffffffffffffffffffffffffffffffffffff163373ffffffffffffffffffffffffffffffffffffffff16146101e4576040517f08c379a00000000000000000000000000000000000000000000000000000000081526004016101db90610389565b60405180910390fd5b600154600081905550565b600260009054906101000a900473ffffffffffffffffffffffffffffffffffffffff1673ffffffffffffffffffffffffffffffffffffffff163373ffffffffffffffffffffffffffffffffffffffff161461027f576040517f08c379a000000000000000000000000000000000000000000000000000000000815260040161027690610389565b60405180910390fd5b8060008082825461029091906103d8565b9250508190555050565b600080fd5b6000819050919050565b6102b28161029f565b81146102bd57600080fd5b50565b6000813590506102cf816102a9565b92915050565b6000602082840312156102eb576102ea61029a565b5b60006102f9848285016102c0565b91505092915050565b61030b8161029f565b82525050565b60006020820190506103266000830184610302565b92915050565b600082825260208201905092915050565b7f43616e206f6e6c792062652063616c6c6564206279206f776e65722e00000000600082015250565b6000610373601c8361032c565b915061037e8261033d565b602082019050919050565b600060208201905081810360008301526103a281610366565b9050919050565b7f4e487b7100000000000000000000000000000000000000000000000000000000600052601160045260246000fd5b60006103e38261029f565b91506103ee8361029f565b9250827fffffffffffffffffffffffffffffffffffffffffffffffffffffffffffffffff03821115610423576104226103a9565b5b82820190509291505056fea26469706673582212209cbe62fc402d0eb82e4442015ac67954e1eea463abe0c6f4e9aac56505f5778164736f6c634300080d0033",
  "linkReferences": {},
  "deployedLinkReferences": {}
}